{
  "_format": "hh-sol-artifact-1",
  "contractName": "INOManager",
  "sourceName": "contracts/INO/Manager.sol",
  "abi": [
    {
      "inputs": [
        {
          "internalType": "contract IINORound",
          "name": "_inoRound",
          "type": "address"
        },
        {
          "internalType": "uint256",
          "name": "_maxBoxesPerAccount",
          "type": "uint256"
        }
      ],
      "stateMutability": "nonpayable",
      "type": "constructor"
    },
    {
      "anonymous": false,
      "inputs": [
        {
          "indexed": true,
          "internalType": "address",
          "name": "account",
          "type": "address"
        },
        {
          "indexed": false,
          "internalType": "enum IEnums.RoundType",
          "name": "roundType",
          "type": "uint8"
        },
        {
          "indexed": false,
          "internalType": "enum IEnums.Rarity",
          "name": "rarity",
          "type": "uint8"
        },
        {
          "indexed": false,
          "internalType": "uint256",
          "name": "amount",
          "type": "uint256"
        },
        {
          "indexed": false,
          "internalType": "uint256",
          "name": "amountNeedPay",
          "type": "uint256"
        },
        {
          "indexed": false,
          "internalType": "uint256",
          "name": "timestamp",
          "type": "uint256"
        }
      ],
      "name": "BoughtBoxes",
      "type": "event"
    },
    {
      "anonymous": false,
      "inputs": [
        {
          "indexed": false,
          "internalType": "address",
          "name": "account",
          "type": "address"
        }
      ],
      "name": "Paused",
      "type": "event"
    },
    {
      "anonymous": false,
      "inputs": [
        {
          "indexed": true,
          "internalType": "bytes32",
          "name": "role",
          "type": "bytes32"
        },
        {
          "indexed": true,
          "internalType": "bytes32",
          "name": "previousAdminRole",
          "type": "bytes32"
        },
        {
          "indexed": true,
          "internalType": "bytes32",
          "name": "newAdminRole",
          "type": "bytes32"
        }
      ],
      "name": "RoleAdminChanged",
      "type": "event"
    },
    {
      "anonymous": false,
      "inputs": [
        {
          "indexed": true,
          "internalType": "bytes32",
          "name": "role",
          "type": "bytes32"
        },
        {
          "indexed": true,
          "internalType": "address",
          "name": "account",
          "type": "address"
        },
        {
          "indexed": true,
          "internalType": "address",
          "name": "sender",
          "type": "address"
        }
      ],
      "name": "RoleGranted",
      "type": "event"
    },
    {
      "anonymous": false,
      "inputs": [
        {
          "indexed": true,
          "internalType": "bytes32",
          "name": "role",
          "type": "bytes32"
        },
        {
          "indexed": true,
          "internalType": "address",
          "name": "account",
          "type": "address"
        },
        {
          "indexed": true,
          "internalType": "address",
          "name": "sender",
          "type": "address"
        }
      ],
      "name": "RoleRevoked",
      "type": "event"
    },
    {
      "anonymous": false,
      "inputs": [
        {
          "indexed": false,
          "internalType": "address",
          "name": "account",
          "type": "address"
        }
      ],
      "name": "Unpaused",
      "type": "event"
    },
    {
      "inputs": [],
      "name": "DEFAULT_ADMIN_ROLE",
      "outputs": [
        {
          "internalType": "bytes32",
          "name": "",
          "type": "bytes32"
        }
      ],
      "stateMutability": "view",
      "type": "function"
    },
    {
      "inputs": [],
      "name": "OPERATOR",
      "outputs": [
        {
          "internalType": "bytes32",
          "name": "",
          "type": "bytes32"
        }
      ],
      "stateMutability": "view",
      "type": "function"
    },
    {
      "inputs": [
        {
          "internalType": "address",
          "name": "operator",
          "type": "address"
        }
      ],
      "name": "addOperator",
      "outputs": [],
      "stateMutability": "nonpayable",
      "type": "function"
    },
    {
      "inputs": [
        {
          "internalType": "address",
          "name": "account",
          "type": "address"
        },
        {
          "internalType": "enum IEnums.Rarity",
          "name": "rarity",
          "type": "uint8"
        },
        {
          "internalType": "uint256",
          "name": "amount",
          "type": "uint256"
        }
      ],
      "name": "buy",
      "outputs": [
        {
          "internalType": "uint256",
          "name": "amountNeedPay",
          "type": "uint256"
        }
      ],
      "stateMutability": "nonpayable",
      "type": "function"
    },
    {
      "inputs": [
        {
          "internalType": "bytes32",
          "name": "role",
          "type": "bytes32"
        }
      ],
      "name": "getRoleAdmin",
      "outputs": [
        {
          "internalType": "bytes32",
          "name": "",
          "type": "bytes32"
        }
      ],
      "stateMutability": "view",
      "type": "function"
    },
    {
      "inputs": [
        {
          "internalType": "address",
          "name": "account",
          "type": "address"
        }
      ],
      "name": "getTotalBoughtBoxesOfUserAllRound",
      "outputs": [
        {
          "internalType": "uint256",
          "name": "total",
          "type": "uint256"
        },
        {
          "internalType": "uint256[][]",
          "name": "amounts",
          "type": "uint256[][]"
        }
      ],
      "stateMutability": "view",
      "type": "function"
    },
    {
      "inputs": [
        {
          "internalType": "uint256",
          "name": "roundId",
          "type": "uint256"
        },
        {
          "internalType": "address",
          "name": "account",
          "type": "address"
        }
      ],
      "name": "getTotalBoughtBoxesOfUserInRound",
      "outputs": [
        {
          "internalType": "uint256",
          "name": "total",
          "type": "uint256"
        },
        {
          "internalType": "uint256[]",
          "name": "amounts",
          "type": "uint256[]"
        }
      ],
      "stateMutability": "view",
      "type": "function"
    },
    {
      "inputs": [
        {
          "internalType": "bytes32",
          "name": "role",
          "type": "bytes32"
        },
        {
          "internalType": "address",
          "name": "account",
          "type": "address"
        }
      ],
      "name": "grantRole",
      "outputs": [],
      "stateMutability": "nonpayable",
      "type": "function"
    },
    {
      "inputs": [
        {
          "internalType": "bytes32",
          "name": "role",
          "type": "bytes32"
        },
        {
          "internalType": "address",
          "name": "account",
          "type": "address"
        }
      ],
      "name": "hasRole",
      "outputs": [
        {
          "internalType": "bool",
          "name": "",
          "type": "bool"
        }
      ],
      "stateMutability": "view",
      "type": "function"
    },
    {
      "inputs": [],
      "name": "inoRound",
      "outputs": [
        {
          "internalType": "contract IINORound",
          "name": "",
          "type": "address"
        }
      ],
      "stateMutability": "view",
      "type": "function"
    },
    {
      "inputs": [],
      "name": "inoSale",
      "outputs": [
        {
          "internalType": "address",
          "name": "",
          "type": "address"
        }
      ],
      "stateMutability": "view",
      "type": "function"
    },
    {
      "inputs": [],
      "name": "maxBoxesPerAccount",
      "outputs": [
        {
          "internalType": "uint256",
          "name": "",
          "type": "uint256"
        }
      ],
      "stateMutability": "view",
      "type": "function"
    },
    {
      "inputs": [],
      "name": "pause",
      "outputs": [],
      "stateMutability": "nonpayable",
      "type": "function"
    },
    {
      "inputs": [],
      "name": "paused",
      "outputs": [
        {
          "internalType": "bool",
          "name": "",
          "type": "bool"
        }
      ],
      "stateMutability": "view",
      "type": "function"
    },
    {
      "inputs": [
        {
          "internalType": "address",
          "name": "operator",
          "type": "address"
        }
      ],
      "name": "removeOperator",
      "outputs": [],
      "stateMutability": "nonpayable",
      "type": "function"
    },
    {
      "inputs": [
        {
          "internalType": "bytes32",
          "name": "role",
          "type": "bytes32"
        },
        {
          "internalType": "address",
          "name": "account",
          "type": "address"
        }
      ],
      "name": "renounceRole",
      "outputs": [],
      "stateMutability": "nonpayable",
      "type": "function"
    },
    {
      "inputs": [
        {
          "internalType": "bytes32",
          "name": "role",
          "type": "bytes32"
        },
        {
          "internalType": "address",
          "name": "account",
          "type": "address"
        }
      ],
      "name": "revokeRole",
      "outputs": [],
      "stateMutability": "nonpayable",
      "type": "function"
    },
    {
      "inputs": [
        {
          "internalType": "contract IINORound",
          "name": "_inoRound",
          "type": "address"
        }
      ],
      "name": "setINORound",
      "outputs": [],
      "stateMutability": "nonpayable",
      "type": "function"
    },
    {
      "inputs": [
        {
          "internalType": "address",
          "name": "_inoSale",
          "type": "address"
        }
      ],
      "name": "setINOSale",
      "outputs": [],
      "stateMutability": "nonpayable",
      "type": "function"
    },
    {
      "inputs": [
        {
          "internalType": "uint256",
          "name": "_maxBoxesPerAccount",
          "type": "uint256"
        }
      ],
      "name": "setMaxBoxesPerAccount",
      "outputs": [],
      "stateMutability": "nonpayable",
      "type": "function"
    },
    {
      "inputs": [
        {
          "internalType": "uint256",
          "name": "roundId",
          "type": "uint256"
        },
        {
          "internalType": "address[]",
          "name": "accounts",
          "type": "address[]"
        },
        {
          "internalType": "bool",
          "name": "status",
          "type": "bool"
        }
      ],
      "name": "setWLForAccounts",
      "outputs": [],
      "stateMutability": "nonpayable",
      "type": "function"
    },
    {
      "inputs": [
        {
          "internalType": "uint256",
          "name": "",
          "type": "uint256"
        },
        {
          "internalType": "address",
          "name": "",
          "type": "address"
        },
        {
          "internalType": "enum IEnums.Rarity",
          "name": "",
          "type": "uint8"
        }
      ],
      "name": "soldBoxesPerAccount",
      "outputs": [
        {
          "internalType": "uint256",
          "name": "",
          "type": "uint256"
        }
      ],
      "stateMutability": "view",
      "type": "function"
    },
    {
      "inputs": [
        {
          "internalType": "bytes4",
          "name": "interfaceId",
          "type": "bytes4"
        }
      ],
      "name": "supportsInterface",
      "outputs": [
        {
          "internalType": "bool",
          "name": "",
          "type": "bool"
        }
      ],
      "stateMutability": "view",
      "type": "function"
    },
    {
      "inputs": [],
      "name": "unpause",
      "outputs": [],
      "stateMutability": "nonpayable",
      "type": "function"
    },
    {
      "inputs": [
        {
          "internalType": "uint256",
          "name": "",
          "type": "uint256"
        },
        {
          "internalType": "address",
          "name": "",
          "type": "address"
        }
      ],
      "name": "whitelistByRound",
      "outputs": [
        {
          "internalType": "bool",
          "name": "",
          "type": "bool"
        }
      ],
      "stateMutability": "view",
      "type": "function"
    }
  ],
  "bytecode": "0x60806040523480156200001157600080fd5b5060405162002366380380620023668339810160408190526200003491620002b4565b600180556002805460ff19169055816001600160a01b038116620000ab5760405162461bcd60e51b8152602060048201526024808201527f41646472657373206f6620636f6e7472616374206d757374206265206e6f6e2d6044820152637a65726f60e01b60648201526084015b60405180910390fd5b620000ca816001600160a01b0316620001f560201b620013281760201c565b620001275760405162461bcd60e51b815260206004820152602660248201527f41646472657373206f6620636f6e7472616374206d757374206265206120636f6044820152651b9d1c9858dd60d21b6064820152608401620000a2565b60008211620001b85760405162461bcd60e51b815260206004820152605060248201527f494e4f4d616e616765723a20546865206d6178696d756d206e756d626572206f60448201527f6620626f786573207468617420746865206163636f756e742063616e2062757960648201526f2c2063616e6e6f74206265207a65726f60801b608482015260a401620000a2565b600380546001600160a01b0319166001600160a01b0385161790556004829055620001ec6000620001e63390565b62000204565b505050620002f0565b6001600160a01b03163b151590565b62000210828262000214565b5050565b6000828152602081815260408083206001600160a01b038516845290915290205460ff1662000210576000828152602081815260408083206001600160a01b03851684529091529020805460ff19166001179055620002703390565b6001600160a01b0316816001600160a01b0316837f2f8788117e7eff1d82e926ec794901d17c78024a50270940304540a733656f0d60405160405180910390a45050565b60008060408385031215620002c857600080fd5b82516001600160a01b0381168114620002e057600080fd5b6020939093015192949293505050565b61206680620003006000396000f3fe608060405234801561001057600080fd5b50600436106101735760003560e01c806364161620116100de5780639870d7fe11610097578063d0b06ba011610071578063d0b06ba014610381578063d547741f14610394578063dafbda61146103a7578063dff373a5146103ba57600080fd5b80639870d7fe14610353578063a217fddf14610366578063ac8a584a1461036e57600080fd5b806364161620146102bd57806364ff9c25146102d05780638456cb59146102fe57806387a2f66e1461030657806391d1485414610319578063983d27371461032c57600080fd5b80632f2ff15d116101305780632f2ff15d1461023257806336568abe146102455780633f4ba83a146102585780634287a0dc14610260578063531f373d146102815780635c975abb146102b257600080fd5b806301ffc9a7146101785780630230b992146101a057806305cd22c0146101cb57806309f3736c146101e25780630d47ffa1146101f7578063248a9ca31461020f575b600080fd5b61018b61018636600461174f565b6103db565b60405190151581526020015b60405180910390f35b6003546101b3906001600160a01b031681565b6040516001600160a01b039091168152602001610197565b6101d460045481565b604051908152602001610197565b6101f56101f0366004611779565b610412565b005b6002546101b39061010090046001600160a01b031681565b6101d461021d366004611810565b60009081526020819052604090206001015490565b6101f561024036600461183e565b610778565b6101f561025336600461183e565b6107a2565b6101f5610820565b61027361026e36600461186e565b610851565b60405161019792919061188b565b6101d461028f366004611931565b600660209081526000938452604080852082529284528284209052825290205481565b60025460ff1661018b565b6101d46102cb36600461196f565b61098b565b61018b6102de36600461183e565b600560209081526000928352604080842090915290825290205460ff1681565b6101f5610e44565b6101f561031436600461186e565b610e73565b61018b61032736600461183e565b610f0b565b6101d47f523a704056dcd17bcf83bed8b68c59416dac1119be77755efe3bde0a64e46e0c81565b6101f561036136600461186e565b610f34565b6101d4600081565b6101f561037c36600461186e565b610f88565b6101f561038f36600461186e565b610fd9565b6101f56103a236600461183e565b611077565b6101f56103b5366004611810565b61109c565b6103cd6103c836600461183e565b611157565b6040516101979291906119ad565b60006001600160e01b03198216637965db0b60e01b148061040c57506301ffc9a760e01b6001600160e01b03198316145b92915050565b61041d600033610f0b565b6104425760405162461bcd60e51b8152600401610439906119fb565b60405180910390fd5b8360001080156104c85750600360009054906101000a90046001600160a01b03166001600160a01b0316639941d6636040518163ffffffff1660e01b8152600401602060405180830381865afa1580156104a0573d6000803e3d6000fd5b505050506040513d601f19601f820116820180604052508101906104c49190611a32565b8411155b6104e45760405162461bcd60e51b815260040161043990611a4b565b600354604051638efc9d6560e01b8152600481018690526000916001600160a01b031690638efc9d65906024016000604051808303816000875af1158015610530573d6000803e3d6000fd5b505050506040513d6000823e601f3d908101601f191682016040526105589190810190611d2a565b905060008151600181111561056f5761056f611d5f565b146105d15760405162461bcd60e51b815260206004820152602c60248201527f494e4f4d616e616765723a2054686520726f756e642074797065206d7573742060448201526b1899481dda1a5d195b1a5cdd60a21b6064820152608401610439565b806060015142106106585760405162461bcd60e51b8152602060048201526044602482018190527f494e4f4d616e616765723a205468652063757272656e742074696d652063616e908201527f6e6f74206265207365742075702077686974656c69737420666f72206163636f606482015263756e747360e01b608482015260a401610439565b826106a55760405162461bcd60e51b815260206004820152601b60248201527f494e4f4d616e616765723a204e6f7468696e67206163636f756e7400000000006044820152606401610439565b60005b838110156107705760008585838181106106c4576106c4611d75565b90506020020160208101906106d9919061186e565b6001600160a01b0316036106ff5760405162461bcd60e51b815260040161043990611d8b565b6000868152600560205260408120849187878581811061072157610721611d75565b9050602002016020810190610736919061186e565b6001600160a01b031681526020810191909152604001600020805460ff19169115159190911790558061076881611de7565b9150506106a8565b505050505050565b60008281526020819052604090206001015461079381611337565b61079d8383611341565b505050565b6001600160a01b03811633146108125760405162461bcd60e51b815260206004820152602f60248201527f416363657373436f6e74726f6c3a2063616e206f6e6c792072656e6f756e636560448201526e103937b632b9903337b91039b2b63360891b6064820152608401610439565b61081c82826113c5565b5050565b61082b600033610f0b565b6108475760405162461bcd60e51b8152600401610439906119fb565b61084f61142a565b565b600060606000600360009054906101000a90046001600160a01b03166001600160a01b0316639941d6636040518163ffffffff1660e01b8152600401602060405180830381865afa1580156108aa573d6000803e3d6000fd5b505050506040513d601f19601f820116820180604052508101906108ce9190611a32565b90508067ffffffffffffffff8111156108e9576108e9611a96565b60405190808252806020026020018201604052801561091c57816020015b60608152602001906001900390816109075790505b50915060005b818110156109845760008061094161093b846001611e00565b88611157565b915091508085848151811061095857610958611d75565b602090810291909101015261096d8287611e00565b95505050808061097c90611de7565b915050610922565b5050915091565b60025460009061010090046001600160a01b0316158015906109c5575060025461010090046001600160a01b0316336001600160a01b0316145b610a5d5760405162461bcd60e51b815260206004820152605960248201527f494e4f4d616e616765723a2054686520494e4f53616c6520636f6e747261637460448201527f20616464726573732063616e6e6f74206265207a65726f20616e64206f6e6c7960648201527f206974206861732074686520726967687420746f2063616c6c00000000000000608482015260a401610439565b600260015403610aaf5760405162461bcd60e51b815260206004820152601f60248201527f5265656e7472616e637947756172643a207265656e7472616e742063616c6c006044820152606401610439565b6002600155610abc61147c565b600080600360009054906101000a90046001600160a01b03166001600160a01b031663a32bf5976040518163ffffffff1660e01b8152600401600060405180830381865afa158015610b12573d6000803e3d6000fd5b505050506040513d6000823e601f3d908101601f19168201604052610b3a9190810190611e13565b9150915060008211610b9f5760405162461bcd60e51b815260206004820152602860248201527f494e4f4d616e616765723a20546865726520617265206e6f20726f756e64732060448201526733b7b4b7339037b760c11b6064820152608401610439565b6001600160a01b038616610bc55760405162461bcd60e51b815260040161043990611d8b565b600081516001811115610bda57610bda611d5f565b03610c655760008281526005602090815260408083206001600160a01b038a16845290915290205460ff16610c655760405162461bcd60e51b815260206004820152602b60248201527f494e4f4d616e616765723a20546865206163636f756e74206973206e6f74206960448201526a1b881dda1a5d195b1a5cdd60aa1b6064820152608401610439565b6000610c7087610851565b509050846000108015610c8e5750600454610c8b8287611e00565b11155b610d0a5760405162461bcd60e51b815260206004820152604160248201527f494e4f4d616e616765723a2054686520626f78657320616d6f756e742068617360448201527f207265616368656420746865206d6178696d756d206f662061206163636f756e6064820152601d60fa1b608482015260a401610439565b60008381526006602090815260408083206001600160a01b038b16845290915281208691886004811115610d4057610d40611d5f565b6004811115610d5157610d51611d5f565b81526020019081526020016000206000828254610d6e9190611e00565b909155505060035460405163153b1b5360e31b81526001600160a01b039091169063a9d8da9890610da79086908a908a90600401611e6e565b6020604051808303816000875af1158015610dc6573d6000803e3d6000fd5b505050506040513d601f19601f82011682018060405250810190610dea9190611a32565b9350866001600160a01b03167f3a5dd1d52f5874a79607b696b7c346b2df02eb00db0368fe9c9c8e44da8d2c08600088888842604051610e2e959493929190611e90565b60405180910390a2505060018055509392505050565b610e4f600033610f0b565b610e6b5760405162461bcd60e51b8152600401610439906119fb565b61084f6114c2565b806001600160a01b038116610e9a5760405162461bcd60e51b815260040161043990611ed0565b6001600160a01b0381163b610ec15760405162461bcd60e51b815260040161043990611f14565b610ecc600033610f0b565b610ee85760405162461bcd60e51b8152600401610439906119fb565b50600380546001600160a01b0319166001600160a01b0392909216919091179055565b6000918252602082815260408084206001600160a01b0393909316845291905290205460ff1690565b610f3f600033610f0b565b610f5b5760405162461bcd60e51b8152600401610439906119fb565b610f857f523a704056dcd17bcf83bed8b68c59416dac1119be77755efe3bde0a64e46e0c82610778565b50565b610f93600033610f0b565b610faf5760405162461bcd60e51b8152600401610439906119fb565b610f857f523a704056dcd17bcf83bed8b68c59416dac1119be77755efe3bde0a64e46e0c82611077565b806001600160a01b0381166110005760405162461bcd60e51b815260040161043990611ed0565b6001600160a01b0381163b6110275760405162461bcd60e51b815260040161043990611f14565b611032600033610f0b565b61104e5760405162461bcd60e51b8152600401610439906119fb565b50600280546001600160a01b0390921661010002610100600160a81b0319909216919091179055565b60008281526020819052604090206001015461109281611337565b61079d83836113c5565b6110a7600033610f0b565b6110c35760405162461bcd60e51b8152600401610439906119fb565b600081116111525760405162461bcd60e51b815260206004820152605060248201527f494e4f4d616e616765723a20546865206d6178696d756d206e756d626572206f60448201527f6620626f786573207468617420746865206163636f756e742063616e2062757960648201526f2c2063616e6e6f74206265207a65726f60801b608482015260a401610439565b600455565b600060608360001080156111e15750600360009054906101000a90046001600160a01b03166001600160a01b0316639941d6636040518163ffffffff1660e01b8152600401602060405180830381865afa1580156111b9573d6000803e3d6000fd5b505050506040513d601f19601f820116820180604052508101906111dd9190611a32565b8411155b6111fd5760405162461bcd60e51b815260040161043990611a4b565b61120960046001611e00565b67ffffffffffffffff81111561122157611221611a96565b60405190808252806020026020018201604052801561124a578160200160208202803683370190505b50905060005b61125c60046001611e00565b8110156113205760008581526006602090815260408083206001600160a01b038816845290915281209082600481111561129857611298611d5f565b60048111156112a9576112a9611d5f565b60048111156112ba576112ba611d5f565b8152602001908152602001600020548282815181106112db576112db611d75565b6020026020010181815250508181815181106112f9576112f9611d75565b60200260200101518361130c9190611e00565b92508061131881611de7565b915050611250565b509250929050565b6001600160a01b03163b151590565b610f8581336114ff565b61134b8282610f0b565b61081c576000828152602081815260408083206001600160a01b03851684529091529020805460ff191660011790556113813390565b6001600160a01b0316816001600160a01b0316837f2f8788117e7eff1d82e926ec794901d17c78024a50270940304540a733656f0d60405160405180910390a45050565b6113cf8282610f0b565b1561081c576000828152602081815260408083206001600160a01b0385168085529252808320805460ff1916905551339285917ff6391f5c32d9c69d2a47ea670b442974b53935d1edc7fd64eb21e047a839171b9190a45050565b611432611563565b6002805460ff191690557f5db9ee0a495bf2e6ff9c91a7834c1ba4fdd244a5e8aa4e537bd38aeae4b073aa335b6040516001600160a01b03909116815260200160405180910390a1565b60025460ff161561084f5760405162461bcd60e51b815260206004820152601060248201526f14185d5cd8589b194e881c185d5cd95960821b6044820152606401610439565b6114ca61147c565b6002805460ff191660011790557f62e78cea01bee320cd4e420270b5ea74000d11b0c9f74754ebdbfc544b05a25861145f3390565b6115098282610f0b565b61081c57611521816001600160a01b031660146115ac565b61152c8360206115ac565b60405160200161153d929190611f5a565b60408051601f198184030181529082905262461bcd60e51b825261043991600401611fcf565b60025460ff1661084f5760405162461bcd60e51b815260206004820152601460248201527314185d5cd8589b194e881b9bdd081c185d5cd95960621b6044820152606401610439565b606060006115bb836002612002565b6115c6906002611e00565b67ffffffffffffffff8111156115de576115de611a96565b6040519080825280601f01601f191660200182016040528015611608576020820181803683370190505b509050600360fc1b8160008151811061162357611623611d75565b60200101906001600160f81b031916908160001a905350600f60fb1b8160018151811061165257611652611d75565b60200101906001600160f81b031916908160001a9053506000611676846002612002565b611681906001611e00565b90505b60018111156116f9576f181899199a1a9b1b9c1cb0b131b232b360811b85600f16601081106116b5576116b5611d75565b1a60f81b8282815181106116cb576116cb611d75565b60200101906001600160f81b031916908160001a90535060049490941c936116f281612019565b9050611684565b5083156117485760405162461bcd60e51b815260206004820181905260248201527f537472696e67733a20686578206c656e67746820696e73756666696369656e746044820152606401610439565b9392505050565b60006020828403121561176157600080fd5b81356001600160e01b03198116811461174857600080fd5b6000806000806060858703121561178f57600080fd5b84359350602085013567ffffffffffffffff808211156117ae57600080fd5b818701915087601f8301126117c257600080fd5b8135818111156117d157600080fd5b8860208260051b85010111156117e657600080fd5b6020830195508094505050506040850135801515811461180557600080fd5b939692955090935050565b60006020828403121561182257600080fd5b5035919050565b6001600160a01b0381168114610f8557600080fd5b6000806040838503121561185157600080fd5b82359150602083013561186381611829565b809150509250929050565b60006020828403121561188057600080fd5b813561174881611829565b600060408201848352602060408185015281855180845260608601915060608160051b87010193508287016000805b8381101561190e57888703605f19018552825180518089529087019087890190845b818110156118f8578351835292890192918901916001016118dc565b50909850505093850193918501916001016118ba565b50949998505050505050505050565b80356005811061192c57600080fd5b919050565b60008060006060848603121561194657600080fd5b83359250602084013561195881611829565b91506119666040850161191d565b90509250925092565b60008060006060848603121561198457600080fd5b833561198f81611829565b925061199d6020850161191d565b9150604084013590509250925092565b6000604082018483526020604081850152818551808452606086019150828701935060005b818110156119ee578451835293830193918301916001016119d2565b5090979650505050505050565b60208082526017908201527f43616c6c6572206973206e6f74207468652061646d696e000000000000000000604082015260600190565b600060208284031215611a4457600080fd5b5051919050565b6020808252602b908201527f494e4f4d616e616765723a2054686520726f756e6420494420697320696e766160408201526a6c6964202831202d206e2960a81b606082015260800190565b634e487b7160e01b600052604160045260246000fd5b604051610100810167ffffffffffffffff81118282101715611ad057611ad0611a96565b60405290565b604051601f8201601f1916810167ffffffffffffffff81118282101715611aff57611aff611a96565b604052919050565b80516002811061192c57600080fd5b60005b83811015611b31578181015183820152602001611b19565b50506000910152565b600082601f830112611b4b57600080fd5b815167ffffffffffffffff811115611b6557611b65611a96565b611b78601f8201601f1916602001611ad6565b818152846020838601011115611b8d57600080fd5b611b9e826020830160208701611b16565b949350505050565b600082601f830112611bb757600080fd5b8151602067ffffffffffffffff821115611bd357611bd3611a96565b8160051b611be2828201611ad6565b9283528481018201928281019087851115611bfc57600080fd5b83870192505b84831015611c1b57825182529183019190830190611c02565b979650505050505050565b60006101008284031215611c3957600080fd5b611c41611aac565b9050611c4c82611b07565b8152602082015167ffffffffffffffff80821115611c6957600080fd5b611c7585838601611b3a565b602084015260408401516040840152606084015160608401526080840151915080821115611ca257600080fd5b611cae85838601611ba6565b608084015260a0840151915080821115611cc757600080fd5b611cd385838601611ba6565b60a084015260c0840151915080821115611cec57600080fd5b611cf885838601611ba6565b60c084015260e0840151915080821115611d1157600080fd5b50611d1e84828501611ba6565b60e08301525092915050565b600060208284031215611d3c57600080fd5b815167ffffffffffffffff811115611d5357600080fd5b611b9e84828501611c26565b634e487b7160e01b600052602160045260246000fd5b634e487b7160e01b600052603260045260246000fd5b60208082526026908201527f494e4f4d616e616765723a20546865206163636f756e742063616e6e6f74206260408201526565207a65726f60d01b606082015260800190565b634e487b7160e01b600052601160045260246000fd5b600060018201611df957611df9611dd1565b5060010190565b8082018082111561040c5761040c611dd1565b60008060408385031215611e2657600080fd5b82519150602083015167ffffffffffffffff811115611e4457600080fd5b611e5085828601611c26565b9150509250929050565b60058110611e6a57611e6a611d5f565b9052565b83815260608101611e826020830185611e5a565b826040830152949350505050565b60a0810160028710611ea457611ea4611d5f565b868252611eb46020830187611e5a565b8460408301528360608301528260808301529695505050505050565b60208082526024908201527f41646472657373206f6620636f6e7472616374206d757374206265206e6f6e2d6040820152637a65726f60e01b606082015260800190565b60208082526026908201527f41646472657373206f6620636f6e7472616374206d757374206265206120636f6040820152651b9d1c9858dd60d21b606082015260800190565b7f416363657373436f6e74726f6c3a206163636f756e7420000000000000000000815260008351611f92816017850160208801611b16565b7001034b99036b4b9b9b4b733903937b6329607d1b6017918401918201528351611fc3816028840160208801611b16565b01602801949350505050565b6020815260008251806020840152611fee816040850160208701611b16565b601f01601f19169190910160400192915050565b808202811582820484141761040c5761040c611dd1565b60008161202857612028611dd1565b50600019019056fea2646970667358221220dfed1f880c6a9d03b3bb617ae74b7ae0f70ccd8580ac69152e3d9336b2877b7764736f6c63430008110033",
  "linkReferences": {},
  "deployedLinkReferences": {}
}