{
  "_format": "hh-sol-artifact-1",
  "contractName": "INORound",
  "sourceName": "contracts/INO/Round.sol",
  "abi": [
    {
      "inputs": [],
      "stateMutability": "nonpayable",
      "type": "constructor"
    },
    {
      "anonymous": false,
      "inputs": [
        {
          "indexed": true,
          "internalType": "bytes32",
          "name": "role",
          "type": "bytes32"
        },
        {
          "indexed": true,
          "internalType": "bytes32",
          "name": "previousAdminRole",
          "type": "bytes32"
        },
        {
          "indexed": true,
          "internalType": "bytes32",
          "name": "newAdminRole",
          "type": "bytes32"
        }
      ],
      "name": "RoleAdminChanged",
      "type": "event"
    },
    {
      "anonymous": false,
      "inputs": [
        {
          "indexed": true,
          "internalType": "bytes32",
          "name": "role",
          "type": "bytes32"
        },
        {
          "indexed": true,
          "internalType": "address",
          "name": "account",
          "type": "address"
        },
        {
          "indexed": true,
          "internalType": "address",
          "name": "sender",
          "type": "address"
        }
      ],
      "name": "RoleGranted",
      "type": "event"
    },
    {
      "anonymous": false,
      "inputs": [
        {
          "indexed": true,
          "internalType": "bytes32",
          "name": "role",
          "type": "bytes32"
        },
        {
          "indexed": true,
          "internalType": "address",
          "name": "account",
          "type": "address"
        },
        {
          "indexed": true,
          "internalType": "address",
          "name": "sender",
          "type": "address"
        }
      ],
      "name": "RoleRevoked",
      "type": "event"
    },
    {
      "inputs": [],
      "name": "DEFAULT_ADMIN_ROLE",
      "outputs": [
        {
          "internalType": "bytes32",
          "name": "",
          "type": "bytes32"
        }
      ],
      "stateMutability": "view",
      "type": "function"
    },
    {
      "inputs": [],
      "name": "OPERATOR",
      "outputs": [
        {
          "internalType": "bytes32",
          "name": "",
          "type": "bytes32"
        }
      ],
      "stateMutability": "view",
      "type": "function"
    },
    {
      "inputs": [
        {
          "internalType": "address",
          "name": "operator",
          "type": "address"
        }
      ],
      "name": "addOperator",
      "outputs": [],
      "stateMutability": "nonpayable",
      "type": "function"
    },
    {
      "inputs": [
        {
          "internalType": "enum IEnums.RoundType",
          "name": "roundType",
          "type": "uint8"
        },
        {
          "internalType": "string",
          "name": "name",
          "type": "string"
        },
        {
          "internalType": "uint256",
          "name": "startTime",
          "type": "uint256"
        },
        {
          "internalType": "uint256",
          "name": "endTime",
          "type": "uint256"
        },
        {
          "internalType": "uint256[]",
          "name": "prices",
          "type": "uint256[]"
        },
        {
          "internalType": "uint256[]",
          "name": "allocations",
          "type": "uint256[]"
        }
      ],
      "name": "addRound",
      "outputs": [],
      "stateMutability": "nonpayable",
      "type": "function"
    },
    {
      "inputs": [],
      "name": "getAllRounds",
      "outputs": [
        {
          "components": [
            {
              "internalType": "enum IEnums.RoundType",
              "name": "roundType",
              "type": "uint8"
            },
            {
              "internalType": "string",
              "name": "name",
              "type": "string"
            },
            {
              "internalType": "uint256",
              "name": "startTime",
              "type": "uint256"
            },
            {
              "internalType": "uint256",
              "name": "endTime",
              "type": "uint256"
            },
            {
              "internalType": "uint256[]",
              "name": "prices",
              "type": "uint256[]"
            },
            {
              "internalType": "uint256[]",
              "name": "allocations",
              "type": "uint256[]"
            },
            {
              "internalType": "uint256[]",
              "name": "numOfSoldBoxes",
              "type": "uint256[]"
            },
            {
              "internalType": "uint256[]",
              "name": "numOfSoldVolume",
              "type": "uint256[]"
            }
          ],
          "internalType": "struct IINORound.RoundInfo[]",
          "name": "",
          "type": "tuple[]"
        }
      ],
      "stateMutability": "view",
      "type": "function"
    },
    {
      "inputs": [],
      "name": "getCurrentRound",
      "outputs": [
        {
          "internalType": "uint256",
          "name": "id",
          "type": "uint256"
        },
        {
          "components": [
            {
              "internalType": "enum IEnums.RoundType",
              "name": "roundType",
              "type": "uint8"
            },
            {
              "internalType": "string",
              "name": "name",
              "type": "string"
            },
            {
              "internalType": "uint256",
              "name": "startTime",
              "type": "uint256"
            },
            {
              "internalType": "uint256",
              "name": "endTime",
              "type": "uint256"
            },
            {
              "internalType": "uint256[]",
              "name": "prices",
              "type": "uint256[]"
            },
            {
              "internalType": "uint256[]",
              "name": "allocations",
              "type": "uint256[]"
            },
            {
              "internalType": "uint256[]",
              "name": "numOfSoldBoxes",
              "type": "uint256[]"
            },
            {
              "internalType": "uint256[]",
              "name": "numOfSoldVolume",
              "type": "uint256[]"
            }
          ],
          "internalType": "struct IINORound.RoundInfo",
          "name": "round",
          "type": "tuple"
        }
      ],
      "stateMutability": "view",
      "type": "function"
    },
    {
      "inputs": [],
      "name": "getNumOfRounds",
      "outputs": [
        {
          "internalType": "uint256",
          "name": "",
          "type": "uint256"
        }
      ],
      "stateMutability": "view",
      "type": "function"
    },
    {
      "inputs": [
        {
          "internalType": "bytes32",
          "name": "role",
          "type": "bytes32"
        }
      ],
      "name": "getRoleAdmin",
      "outputs": [
        {
          "internalType": "bytes32",
          "name": "",
          "type": "bytes32"
        }
      ],
      "stateMutability": "view",
      "type": "function"
    },
    {
      "inputs": [
        {
          "internalType": "uint256",
          "name": "id",
          "type": "uint256"
        }
      ],
      "name": "getRoundAllocation",
      "outputs": [
        {
          "internalType": "uint256[]",
          "name": "",
          "type": "uint256[]"
        }
      ],
      "stateMutability": "view",
      "type": "function"
    },
    {
      "inputs": [
        {
          "internalType": "uint256",
          "name": "id",
          "type": "uint256"
        }
      ],
      "name": "getRoundById",
      "outputs": [
        {
          "components": [
            {
              "internalType": "enum IEnums.RoundType",
              "name": "roundType",
              "type": "uint8"
            },
            {
              "internalType": "string",
              "name": "name",
              "type": "string"
            },
            {
              "internalType": "uint256",
              "name": "startTime",
              "type": "uint256"
            },
            {
              "internalType": "uint256",
              "name": "endTime",
              "type": "uint256"
            },
            {
              "internalType": "uint256[]",
              "name": "prices",
              "type": "uint256[]"
            },
            {
              "internalType": "uint256[]",
              "name": "allocations",
              "type": "uint256[]"
            },
            {
              "internalType": "uint256[]",
              "name": "numOfSoldBoxes",
              "type": "uint256[]"
            },
            {
              "internalType": "uint256[]",
              "name": "numOfSoldVolume",
              "type": "uint256[]"
            }
          ],
          "internalType": "struct IINORound.RoundInfo",
          "name": "",
          "type": "tuple"
        }
      ],
      "stateMutability": "view",
      "type": "function"
    },
    {
      "inputs": [
        {
          "internalType": "enum IEnums.Rarity",
          "name": "rarity",
          "type": "uint8"
        }
      ],
      "name": "getTotalAllocationOfRounds",
      "outputs": [
        {
          "internalType": "uint256",
          "name": "totalAllocations",
          "type": "uint256"
        }
      ],
      "stateMutability": "view",
      "type": "function"
    },
    {
      "inputs": [
        {
          "internalType": "bytes32",
          "name": "role",
          "type": "bytes32"
        },
        {
          "internalType": "address",
          "name": "account",
          "type": "address"
        }
      ],
      "name": "grantRole",
      "outputs": [],
      "stateMutability": "nonpayable",
      "type": "function"
    },
    {
      "inputs": [
        {
          "internalType": "bytes32",
          "name": "role",
          "type": "bytes32"
        },
        {
          "internalType": "address",
          "name": "account",
          "type": "address"
        }
      ],
      "name": "hasRole",
      "outputs": [
        {
          "internalType": "bool",
          "name": "",
          "type": "bool"
        }
      ],
      "stateMutability": "view",
      "type": "function"
    },
    {
      "inputs": [],
      "name": "inoManager",
      "outputs": [
        {
          "internalType": "contract IINOManager",
          "name": "",
          "type": "address"
        }
      ],
      "stateMutability": "view",
      "type": "function"
    },
    {
      "inputs": [
        {
          "internalType": "address",
          "name": "operator",
          "type": "address"
        }
      ],
      "name": "removeOperator",
      "outputs": [],
      "stateMutability": "nonpayable",
      "type": "function"
    },
    {
      "inputs": [
        {
          "internalType": "uint256",
          "name": "id",
          "type": "uint256"
        }
      ],
      "name": "removeRound",
      "outputs": [],
      "stateMutability": "nonpayable",
      "type": "function"
    },
    {
      "inputs": [
        {
          "internalType": "bytes32",
          "name": "role",
          "type": "bytes32"
        },
        {
          "internalType": "address",
          "name": "account",
          "type": "address"
        }
      ],
      "name": "renounceRole",
      "outputs": [],
      "stateMutability": "nonpayable",
      "type": "function"
    },
    {
      "inputs": [
        {
          "internalType": "bytes32",
          "name": "role",
          "type": "bytes32"
        },
        {
          "internalType": "address",
          "name": "account",
          "type": "address"
        }
      ],
      "name": "revokeRole",
      "outputs": [],
      "stateMutability": "nonpayable",
      "type": "function"
    },
    {
      "inputs": [
        {
          "internalType": "uint256",
          "name": "",
          "type": "uint256"
        }
      ],
      "name": "rounds",
      "outputs": [
        {
          "internalType": "enum IEnums.RoundType",
          "name": "roundType",
          "type": "uint8"
        },
        {
          "internalType": "string",
          "name": "name",
          "type": "string"
        },
        {
          "internalType": "uint256",
          "name": "startTime",
          "type": "uint256"
        },
        {
          "internalType": "uint256",
          "name": "endTime",
          "type": "uint256"
        }
      ],
      "stateMutability": "view",
      "type": "function"
    },
    {
      "inputs": [
        {
          "internalType": "contract IINOManager",
          "name": "_inoManager",
          "type": "address"
        }
      ],
      "name": "setIINOManager",
      "outputs": [],
      "stateMutability": "nonpayable",
      "type": "function"
    },
    {
      "inputs": [
        {
          "internalType": "bytes4",
          "name": "interfaceId",
          "type": "bytes4"
        }
      ],
      "name": "supportsInterface",
      "outputs": [
        {
          "internalType": "bool",
          "name": "",
          "type": "bool"
        }
      ],
      "stateMutability": "view",
      "type": "function"
    },
    {
      "inputs": [
        {
          "internalType": "uint256",
          "name": "id",
          "type": "uint256"
        },
        {
          "internalType": "string",
          "name": "name",
          "type": "string"
        },
        {
          "internalType": "uint256",
          "name": "startTime",
          "type": "uint256"
        },
        {
          "internalType": "uint256",
          "name": "endTime",
          "type": "uint256"
        },
        {
          "internalType": "uint256[]",
          "name": "prices",
          "type": "uint256[]"
        },
        {
          "internalType": "uint256[]",
          "name": "allocations",
          "type": "uint256[]"
        }
      ],
      "name": "updateRound",
      "outputs": [],
      "stateMutability": "nonpayable",
      "type": "function"
    },
    {
      "inputs": [
        {
          "internalType": "uint256",
          "name": "id",
          "type": "uint256"
        },
        {
          "internalType": "enum IEnums.Rarity",
          "name": "rarity",
          "type": "uint8"
        },
        {
          "internalType": "uint256",
          "name": "amountOfBoxes",
          "type": "uint256"
        }
      ],
      "name": "updateSoldBoxesAndVolume",
      "outputs": [
        {
          "internalType": "uint256",
          "name": "amountNeedPay",
          "type": "uint256"
        }
      ],
      "stateMutability": "nonpayable",
      "type": "function"
    }
  ],
  "bytecode": "0x60806040523480156200001157600080fd5b506200001f60003362000025565b620000d5565b62000031828262000035565b5050565b6000828152602081815260408083206001600160a01b038516845290915290205460ff1662000031576000828152602081815260408083206001600160a01b03851684529091529020805460ff19166001179055620000913390565b6001600160a01b0316816001600160a01b0316837f2f8788117e7eff1d82e926ec794901d17c78024a50270940304540a733656f0d60405160405180910390a45050565b612b4d80620000e56000396000f3fe608060405234801561001057600080fd5b506004361061014d5760003560e01c8063924e9fac116100c3578063a9d8da981161007c578063a9d8da981461030d578063ac8a584a14610320578063ad29ddaa14610333578063d547741f14610346578063dc80cd3f14610359578063e5066bbf1461036c57600080fd5b8063924e9fac14610282578063983d2737146102ad5780639870d7fe146102d45780639941d663146102e7578063a217fddf146102ef578063a32bf597146102f757600080fd5b8063450d9b7e11610115578063450d9b7e146101e6578063605b9306146102065780636360a2f2146102195780638c65c81f1461022c5780638efc9d651461024f57806391d148541461026f57600080fd5b806301ffc9a714610152578063248a9ca31461017a5780632f2ff15d146101ab57806336568abe146101c05780633bc2894c146101d3575b600080fd5b6101656101603660046121e0565b610381565b60405190151581526020015b60405180910390f35b61019d61018836600461220a565b60009081526020819052604090206001015490565b604051908152602001610171565b6101be6101b9366004612238565b6103b8565b005b6101be6101ce366004612238565b6103e2565b6101be6101e13660046122f6565b610465565b6101f96101f436600461220a565b6105f0565b60405161017191906123af565b6101be6102143660046123f3565b6106a6565b6101be61022736600461243d565b6107f6565b61023f61023a36600461220a565b610909565b60405161017194939291906124e2565b61026261025d36600461220a565b6109d1565b60405161017191906125fc565b61016561027d366004612238565b610c7b565b600154610295906001600160a01b031681565b6040516001600160a01b039091168152602001610171565b61019d7f523a704056dcd17bcf83bed8b68c59416dac1119be77755efe3bde0a64e46e0c81565b6101be6102e236600461243d565b610ca4565b60025461019d565b61019d600081565b6102ff610cf8565b60405161017192919061260f565b61019d61031b366004612644565b610ffb565b6101be61032e36600461243d565b611274565b6101be61034136600461220a565b6112c5565b6101be610354366004612238565b61157b565b61019d610367366004612679565b6115a0565b610374611627565b6040516101719190612694565b60006001600160e01b03198216637965db0b60e01b14806103b257506301ffc9a760e01b6001600160e01b03198316145b92915050565b6000828152602081905260409020600101546103d3816118ba565b6103dd83836118c4565b505050565b6001600160a01b03811633146104575760405162461bcd60e51b815260206004820152602f60248201527f416363657373436f6e74726f6c3a2063616e206f6e6c792072656e6f756e636560448201526e103937b632b9903337b91039b2b63360891b60648201526084015b60405180910390fd5b6104618282611948565b5050565b610470600033610c7b565b61048c5760405162461bcd60e51b815260040161044e906126f6565b600254891580159061049e5750808a11155b6104ba5760405162461bcd60e51b815260040161044e9061272d565b60006104c58b6109d1565b905060006104de82600001518c8c8c8c8c8c8c8c6119ad565b90506104f46104ee60018e612786565b82611cad565b80600261050260018f612786565b8154811061051257610512612799565b6000918252602090912082516008909202018054909190829060ff1916600183818111156105425761054261245a565b02179055506020820151600182019061055b908261284d565b5060408201516002820155606082015160038201556080820151805161058b9160048401916020909101906120a6565b5060a082015180516105a79160058401916020909101906120a6565b5060c082015180516105c39160068401916020909101906120a6565b5060e082015180516105df9160078401916020909101906120a6565b505050505050505050505050505050565b60025460609082158015906106055750808311155b6106215760405162461bcd60e51b815260040161044e9061290d565b600261062e600185612786565b8154811061063e5761063e612799565b906000526020600020906008020160050180548060200260200160405190810160405280929190818152602001828054801561069957602002820191906000526020600020905b815481526020019060010190808311610685575b5050505050915050919050565b6106b1600033610c7b565b6106cd5760405162461bcd60e51b815260040161044e906126f6565b60006106e08a8a8a8a8a8a8a8a8a6119ad565b6002549091506106f08183611cad565b6002805460018181018355600092909252835160089091027f405787fa12a823e0f2b7631cc41b3ba8828b3321ca811111fa75cd3aa3bb5ace0180548593919291839160ff19169083818111156107495761074961245a565b021790555060208201516001820190610762908261284d565b506040820151600282015560608201516003820155608082015180516107929160048401916020909101906120a6565b5060a082015180516107ae9160058401916020909101906120a6565b5060c082015180516107ca9160068401916020909101906120a6565b5060e082015180516107e69160078401916020909101906120a6565b5050505050505050505050505050565b610801600033610c7b565b61081d5760405162461bcd60e51b815260040161044e906126f6565b806001600160a01b0381166108805760405162461bcd60e51b8152602060048201526024808201527f41646472657373206f6620636f6e7472616374206d757374206265206e6f6e2d6044820152637a65726f60e01b606482015260840161044e565b6001600160a01b0381163b6108e65760405162461bcd60e51b815260206004820152602660248201527f41646472657373206f6620636f6e7472616374206d757374206265206120636f6044820152651b9d1c9858dd60d21b606482015260840161044e565b50600180546001600160a01b0319166001600160a01b0392909216919091179055565b6002818154811061091957600080fd5b60009182526020909120600890910201805460018201805460ff909216935090610942906127c5565b80601f016020809104026020016040519081016040528092919081815260200182805461096e906127c5565b80156109bb5780601f10610990576101008083540402835291602001916109bb565b820191906000526020600020905b81548152906001019060200180831161099e57829003601f168201915b5050505050908060020154908060030154905084565b6109d96120f1565b60025482158015906109eb5750808311155b610a075760405162461bcd60e51b815260040161044e9061290d565b6002610a14600185612786565b81548110610a2457610a24612799565b600091825260209091206040805161010081019091526008909202018054829060ff166001811115610a5857610a5861245a565b6001811115610a6957610a6961245a565b8152602001600182018054610a7d906127c5565b80601f0160208091040260200160405190810160405280929190818152602001828054610aa9906127c5565b8015610af65780601f10610acb57610100808354040283529160200191610af6565b820191906000526020600020905b815481529060010190602001808311610ad957829003601f168201915b50505050508152602001600282015481526020016003820154815260200160048201805480602002602001604051908101604052809291908181526020018280548015610b6257602002820191906000526020600020905b815481526020019060010190808311610b4e575b5050505050815260200160058201805480602002602001604051908101604052809291908181526020018280548015610bba57602002820191906000526020600020905b815481526020019060010190808311610ba6575b5050505050815260200160068201805480602002602001604051908101604052809291908181526020018280548015610c1257602002820191906000526020600020905b815481526020019060010190808311610bfe575b5050505050815260200160078201805480602002602001604051908101604052809291908181526020018280548015610c6a57602002820191906000526020600020905b815481526020019060010190808311610c56575b505050505081525050915050919050565b6000918252602082815260408084206001600160a01b0393909316845291905290205460ff1690565b610caf600033610c7b565b610ccb5760405162461bcd60e51b815260040161044e906126f6565b610cf57f523a704056dcd17bcf83bed8b68c59416dac1119be77755efe3bde0a64e46e0c826103b8565b50565b6000610d026120f1565b60025460005b81811015610ff5574260028281548110610d2457610d24612799565b90600052602060002090600802016002015411158015610d68575060028181548110610d5257610d52612799565b9060005260206000209060080201600301544211155b15610fe357610d78816001612944565b935060028181548110610d8d57610d8d612799565b600091825260209091206040805161010081019091526008909202018054829060ff166001811115610dc157610dc161245a565b6001811115610dd257610dd261245a565b8152602001600182018054610de6906127c5565b80601f0160208091040260200160405190810160405280929190818152602001828054610e12906127c5565b8015610e5f5780601f10610e3457610100808354040283529160200191610e5f565b820191906000526020600020905b815481529060010190602001808311610e4257829003601f168201915b50505050508152602001600282015481526020016003820154815260200160048201805480602002602001604051908101604052809291908181526020018280548015610ecb57602002820191906000526020600020905b815481526020019060010190808311610eb7575b5050505050815260200160058201805480602002602001604051908101604052809291908181526020018280548015610f2357602002820191906000526020600020905b815481526020019060010190808311610f0f575b5050505050815260200160068201805480602002602001604051908101604052809291908181526020018280548015610f7b57602002820191906000526020600020905b815481526020019060010190808311610f67575b5050505050815260200160078201805480602002602001604051908101604052809291908181526020018280548015610fd357602002820191906000526020600020905b815481526020019060010190808311610fbf575b5050505050815250509250610ff5565b80610fed81612957565b915050610d08565b50509091565b6001546000906001600160a01b03161580159061102b57506001546001600160a01b0316336001600160a01b0316145b6110c35760405162461bcd60e51b815260206004820152605c60248201527f494e4f4d616e616765723a2054686520494e4f4d616e6167657220636f6e747260448201527f61637420616464726573732063616e6e6f74206265207a65726f20616e64206f60648201527f6e6c79206974206861732074686520726967687420746f2063616c6c00000000608482015260a40161044e565b60025484158015906110d55750808511155b6110f15760405162461bcd60e51b815260040161044e9061290d565b60008460048111156111055761110561245a565b905060006002611116600189612786565b8154811061112657611126612799565b906000526020600020906008020190508481600601838154811061114c5761114c612799565b9060005260206000200160008282546111659190612944565b90915550506005810180548390811061118057611180612799565b90600052602060002001548160060183815481106111a0576111a0612799565b906000526020600020015411156112085760405162461bcd60e51b815260206004820152602660248201527f494e4f526f756e643a2054686520616c6c6f636174696f6e206c696d69742072604482015265195858da195960d21b606482015260840161044e565b80600401828154811061121d5761121d612799565b9060005260206000200154856112339190612970565b93508381600701838154811061124b5761124b612799565b9060005260206000200160008282546112649190612944565b9091555093979650505050505050565b61127f600033610c7b565b61129b5760405162461bcd60e51b815260040161044e906126f6565b610cf57f523a704056dcd17bcf83bed8b68c59416dac1119be77755efe3bde0a64e46e0c8261157b565b6112d0600033610c7b565b6112ec5760405162461bcd60e51b815260040161044e906126f6565b60025481158015906112fe5750808211155b61131a5760405162461bcd60e51b815260040161044e9061272d565b6002611327600184612786565b8154811061133757611337612799565b90600052602060002090600802016002015442106113bd5760405162461bcd60e51b815260206004820152603e60248201527f494e4f526f756e643a2043616e6e6f742072656d6f76652074686520726f756e60448201527f6420746861742068617320616c72656164792074616b656e20706c6163650000606482015260840161044e565b60006113ca600184612786565b90505b6002546113dc90600190612786565b8110156114ec5760026113f0826001612944565b8154811061140057611400612799565b90600052602060002090600802016002828154811061142157611421612799565b6000918252602090912082546008909202018054909160ff1690829060ff1916600183818111156114545761145461245a565b021790555060018181019061146b90840182612987565b5060028201548160020155600382015481600301556004820181600401908054611496929190612137565b50600582810180546114ab9284019190612137565b50600682810180546114c09284019190612137565b50600782810180546114d59284019190612137565b5090505080806114e490612957565b9150506113cd565b5060028054806114fe576114fe612a62565b600082815260208120600860001990930192830201805460ff19168155906115296001830182612177565b6002820160009055600382016000905560048201600061154991906121b1565b6115576005830160006121b1565b6115656006830160006121b1565b6115736007830160006121b1565b505090555050565b600082815260208190526040902060010154611596816118ba565b6103dd8383611948565b600254600090815b8181101561162057600281815481106115c3576115c3612799565b90600052602060002090600802016005018460048111156115e6576115e661245a565b815481106115f6576115f6612799565b90600052602060002001548361160c9190612944565b92508061161881612957565b9150506115a8565b5050919050565b60606002805480602002602001604051908101604052809291908181526020016000905b828210156118b157600084815260209020604080516101008101909152600884029091018054829060ff1660018111156116875761168761245a565b60018111156116985761169861245a565b81526020016001820180546116ac906127c5565b80601f01602080910402602001604051908101604052809291908181526020018280546116d8906127c5565b80156117255780601f106116fa57610100808354040283529160200191611725565b820191906000526020600020905b81548152906001019060200180831161170857829003601f168201915b5050505050815260200160028201548152602001600382015481526020016004820180548060200260200160405190810160405280929190818152602001828054801561179157602002820191906000526020600020905b81548152602001906001019080831161177d575b50505050508152602001600582018054806020026020016040519081016040528092919081815260200182805480156117e957602002820191906000526020600020905b8154815260200190600101908083116117d5575b505050505081526020016006820180548060200260200160405190810160405280929190818152602001828054801561184157602002820191906000526020600020905b81548152602001906001019080831161182d575b505050505081526020016007820180548060200260200160405190810160405280929190818152602001828054801561189957602002820191906000526020600020905b815481526020019060010190808311611885575b5050505050815250508152602001906001019061164b565b50505050905090565b610cf58133611e9f565b6118ce8282610c7b565b610461576000828152602081815260408083206001600160a01b03851684529091529020805460ff191660011790556119043390565b6001600160a01b0316816001600160a01b0316837f2f8788117e7eff1d82e926ec794901d17c78024a50270940304540a733656f0d60405160405180910390a45050565b6119528282610c7b565b15610461576000828152602081815260408083206001600160a01b0385168085529252808320805460ff1916905551339285917ff6391f5c32d9c69d2a47ea670b442974b53935d1edc7fd64eb21e047a839171b9190a45050565b6119b56120f1565b6000889003611a115760405162461bcd60e51b815260206004820152602260248201527f494e4f526f756e643a20546865206e616d652063616e6e6f7420626520656d70604482015261747960f01b606482015260840161044e565b858710611a865760405162461bcd60e51b815260206004820152603760248201527f494e4f526f756e643a205468652073746172742074696d652063616e6e6f742060448201527f626520677265617465722074686520656e642074696d65000000000000000000606482015260840161044e565b6000611a9460046001612944565b90508481148015611aa457508281145b611b345760405162461bcd60e51b815260206004820152605560248201527f494e4f526f756e643a2054686520616d6f756e74206f6620707269636573206160448201527f6e6420616c6c6f636174696f6e73206d7573742062652073616d652074686520606482015274616d6f756e742072617269747920696e646578657360581b608482015260a40161044e565b6040518061010001604052808c6001811115611b5257611b5261245a565b81526020018b8b8080601f01602080910402602001604051908101604052809392919081815260200183838082843760009201919091525050509082525060208082018b905260408083018b905280518983028181018401909252898152606090930192918a918a9182919085019084908082843760009201919091525050509082525060408051602087810282810182019093528782529283019290918891889182918501908490808284376000920191909152505050908252506020018267ffffffffffffffff811115611c2a57611c2a6127af565b604051908082528060200260200182016040528015611c53578160200160208202803683370190505b5081526020018267ffffffffffffffff811115611c7257611c726127af565b604051908082528060200260200182016040528015611c9b578160200160208202803683370190505b5090529b9a5050505050505050505050565b80604001514210611d185760405162461bcd60e51b815260206004820152602f60248201527f494e4f526f756e643a205468652073746172742074696d65206d75737420626560448201526e20696e20746865206665617475726560881b606482015260840161044e565b6002548215611de45760408201516002611d33600186612786565b81548110611d4357611d43612799565b90600052602060002090600802016003015410611de45760405162461bcd60e51b815260206004820152605360248201527f494e4f526f756e643a205468652073746172742074696d65206f66206e65772060448201527f726f756e64206d757374206d6f7265207468616e2074686520656e642074696d60648201527265206f6620746865206265666f7265206f6e6560681b608482015260a40161044e565b80611df0846001612944565b10156103dd5760608201516002611e08856001612944565b81548110611e1857611e18612799565b906000526020600020906008020160020154116103dd576040805162461bcd60e51b81526020600482015260248101919091527f494e4f526f756e643a2054686520656e642074696d65206f66206e657720726f60448201527f756e64206d757374206c657373207468616e20746865206166746572206f6e65606482015260840161044e565b611ea98282610c7b565b61046157611ec1816001600160a01b03166014611f03565b611ecc836020611f03565b604051602001611edd929190612a78565b60408051601f198184030181529082905262461bcd60e51b825261044e91600401612aed565b60606000611f12836002612970565b611f1d906002612944565b67ffffffffffffffff811115611f3557611f356127af565b6040519080825280601f01601f191660200182016040528015611f5f576020820181803683370190505b509050600360fc1b81600081518110611f7a57611f7a612799565b60200101906001600160f81b031916908160001a905350600f60fb1b81600181518110611fa957611fa9612799565b60200101906001600160f81b031916908160001a9053506000611fcd846002612970565b611fd8906001612944565b90505b6001811115612050576f181899199a1a9b1b9c1cb0b131b232b360811b85600f166010811061200c5761200c612799565b1a60f81b82828151811061202257612022612799565b60200101906001600160f81b031916908160001a90535060049490941c9361204981612b00565b9050611fdb565b50831561209f5760405162461bcd60e51b815260206004820181905260248201527f537472696e67733a20686578206c656e67746820696e73756666696369656e74604482015260640161044e565b9392505050565b8280548282559060005260206000209081019282156120e1579160200282015b828111156120e15782518255916020019190600101906120c6565b506120ed9291506121cb565b5090565b6040805161010081019091528060008152602001606081526020016000815260200160008152602001606081526020016060815260200160608152602001606081525090565b8280548282559060005260206000209081019282156120e15760005260206000209182015b828111156120e157825482559160010191906001019061215c565b508054612183906127c5565b6000825580601f10612193575050565b601f016020900490600052602060002090810190610cf591906121cb565b5080546000825590600052602060002090810190610cf591905b5b808211156120ed57600081556001016121cc565b6000602082840312156121f257600080fd5b81356001600160e01b03198116811461209f57600080fd5b60006020828403121561221c57600080fd5b5035919050565b6001600160a01b0381168114610cf557600080fd5b6000806040838503121561224b57600080fd5b82359150602083013561225d81612223565b809150509250929050565b60008083601f84011261227a57600080fd5b50813567ffffffffffffffff81111561229257600080fd5b6020830191508360208285010111156122aa57600080fd5b9250929050565b60008083601f8401126122c357600080fd5b50813567ffffffffffffffff8111156122db57600080fd5b6020830191508360208260051b85010111156122aa57600080fd5b600080600080600080600080600060c08a8c03121561231457600080fd5b8935985060208a013567ffffffffffffffff8082111561233357600080fd5b61233f8d838e01612268565b909a50985060408c0135975060608c0135965060808c013591508082111561236657600080fd5b6123728d838e016122b1565b909650945060a08c013591508082111561238b57600080fd5b506123988c828d016122b1565b915080935050809150509295985092959850929598565b6020808252825182820181905260009190848201906040850190845b818110156123e7578351835292840192918401916001016123cb565b50909695505050505050565b600080600080600080600080600060c08a8c03121561241157600080fd5b89356002811061242057600080fd5b985060208a013567ffffffffffffffff8082111561233357600080fd5b60006020828403121561244f57600080fd5b813561209f81612223565b634e487b7160e01b600052602160045260246000fd5b6002811061248e57634e487b7160e01b600052602160045260246000fd5b9052565b60005b838110156124ad578181015183820152602001612495565b50506000910152565b600081518084526124ce816020860160208601612492565b601f01601f19169290920160200192915050565b6124ec8186612470565b60806020820152600061250260808301866124b6565b6040830194909452506060015292915050565b600081518084526020808501945080840160005b8381101561254557815187529582019590820190600101612529565b509495945050505050565b6000610100612560848451612470565b6020830151816020860152612577828601826124b6565b9150506040830151604085015260608301516060850152608083015184820360808601526125a58282612515565b91505060a083015184820360a08601526125bf8282612515565b91505060c083015184820360c08601526125d98282612515565b91505060e083015184820360e08601526125f38282612515565b95945050505050565b60208152600061209f6020830184612550565b8281526040602082015260006126286040830184612550565b949350505050565b80356005811061263f57600080fd5b919050565b60008060006060848603121561265957600080fd5b8335925061266960208501612630565b9150604084013590509250925092565b60006020828403121561268b57600080fd5b61209f82612630565b6000602080830181845280855180835260408601915060408160051b870101925083870160005b828110156126e957603f198886030184526126d7858351612550565b945092850192908501906001016126bb565b5092979650505050505050565b60208082526017908201527f43616c6c6572206973206e6f74207468652061646d696e000000000000000000604082015260600190565b60208082526023908201527f494e4f526f756e643a2054686520696420697320696e76616c6964202831202d604082015262206e2960e81b606082015260800190565b634e487b7160e01b600052601160045260246000fd5b818103818111156103b2576103b2612770565b634e487b7160e01b600052603260045260246000fd5b634e487b7160e01b600052604160045260246000fd5b600181811c908216806127d957607f821691505b6020821081036127f957634e487b7160e01b600052602260045260246000fd5b50919050565b601f8211156103dd57600081815260208120601f850160051c810160208610156128265750805b601f850160051c820191505b8181101561284557828155600101612832565b505050505050565b815167ffffffffffffffff811115612867576128676127af565b61287b8161287584546127c5565b846127ff565b602080601f8311600181146128b057600084156128985750858301515b600019600386901b1c1916600185901b178555612845565b600085815260208120601f198616915b828110156128df578886015182559484019460019091019084016128c0565b50858210156128fd5787850151600019600388901b60f8161c191681555b5050505050600190811b01905550565b6020808252601b908201527f494e4f526f756e643a2054686520696420697320696e76616c69640000000000604082015260600190565b808201808211156103b2576103b2612770565b60006001820161296957612969612770565b5060010190565b80820281158282048414176103b2576103b2612770565b818103612992575050565b61299c82546127c5565b67ffffffffffffffff8111156129b4576129b46127af565b6129c28161287584546127c5565b6000601f8211600181146129f657600083156129de5750848201545b600019600385901b1c1916600184901b178455612a5b565b600085815260209020601f19841690600086815260209020845b83811015612a305782860154825560019586019590910190602001612a10565b5085831015612a4e5781850154600019600388901b60f8161c191681555b50505060018360011b0184555b5050505050565b634e487b7160e01b600052603160045260246000fd5b7f416363657373436f6e74726f6c3a206163636f756e7420000000000000000000815260008351612ab0816017850160208801612492565b7001034b99036b4b9b9b4b733903937b6329607d1b6017918401918201528351612ae1816028840160208801612492565b01602801949350505050565b60208152600061209f60208301846124b6565b600081612b0f57612b0f612770565b50600019019056fea26469706673582212202edb7291b080e688072d792c8ee6b5e81fd79e56b35bcdaf19a8374f3f5bc88164736f6c63430008110033",
  "linkReferences": {},
  "deployedLinkReferences": {}
}